C51 COMPILER V9.01   MAIN                                                                  03/08/2022 22:43:47 PAGE 1   


C51 COMPILER V9.01, COMPILATION OF MODULE MAIN
OBJECT MODULE PLACED IN main.OBJ
COMPILER INVOKED BY: D:\KEILC51\C51\BIN\C51.EXE main.c BROWSE DEBUG OBJECTEXTEND

line level    source

   1          #include "REG52.h"
   2          #include "i2c.h"
   3          #include "DHT11.h"
   4          #include "DS1302.h"
   5          #include "key.h"
   6          
   7          uchar rec_dat[9];   //用于显示的接收数据数组
   8          //
   9          //uchar ALARM[3];
  10          
  11          sbit led=P2^7;
  12          
  13          uint i,j=0;
  14          uchar  singletime[13];   //
  15          
  16          signed char hour=7;
  17          signed char minute=40;
  18          signed char second=30;
  19          
  20          uchar m,n=0;
  21          uchar pp=0;
  22          
  23          void display()
  24          {        
  25   1           //time_change();
  26   1               singletime[0]=TIME[6]/16;//年的十位
  27   1               singletime[1]=TIME[6]%16;//年的个位
  28   1               singletime[2]=TIME[4]/16;//月的十位
  29   1               singletime[3]=TIME[4]%16;//月的个位
  30   1               singletime[4]=TIME[3]/16;//日的十位
  31   1               singletime[5]=TIME[3]%16;//日的个位
  32   1               singletime[6]=TIME[2]/16;//时的十位，24时制
  33   1               singletime[7]=TIME[2]%16;//时的个位
  34   1               singletime[8]=TIME[1]/16;//分的十位
  35   1               singletime[9]=TIME[1]%16;//分的个位
  36   1               singletime[10]=TIME[0]/16;//秒的十位
  37   1               singletime[11]=TIME[0]%16;//秒的个位
  38   1      //       TIME[5]=CaculateWeekDay(TIME[6],TIME[4],TIME[3]);
  39   1               singletime[12]=TIME[5]%16;//星期几
  40   1                
  41   1      }
  42          
  43          void Delay1ms(int t)            //@12.000MHz
  44          {
  45   1              int a,b;
  46   1              for(;t>0;t--)
  47   1              {
  48   2                      for(a=199;a>0;a--)
  49   2                      {
  50   3                              for(b=1;b>0;b--)
  51   3                              {
  52   4                                      ;
  53   4                              }
  54   3                      }
  55   2              }
C51 COMPILER V9.01   MAIN                                                                  03/08/2022 22:43:47 PAGE 2   

  56   1      }
  57          
  58          void AlarmClock(uchar h,uchar m,uchar s)   //闹钟
  59          {
  60   1              if(singletime[6]==h/10)
  61   1              {
  62   2                      if(singletime[7]==h%10)
  63   2                      {
  64   3                              if(singletime[8]==m/10)
  65   3                              {
  66   4                                      if(singletime[9]==m%10)
  67   4                                      {
  68   5                                              if(singletime[10]==s/10)
  69   5                                              {
  70   6                                                      if(singletime[11]>=s%10 && singletime[11]<=5+(s%10))
  71   6                                                      {
  72   7                                                              led=1;
  73   7                                                      }
  74   6                                                      else
  75   6                                                              led=0;
  76   6                                              }
  77   5                                      }
  78   4                              }
  79   3                      }
  80   2              }
  81   1      }
  82          
  83          void main()
  84          {
  85   1              led=0;
  86   1      
  87   1              oled_initial();   //oled初始化
  88   1      //      if(Ds1302Read(0xc1)!=(0x20/16)*10+(0x20%16))
  89   1                      Ds1302Init();    //DS1302初始化
  90   1              inint1();   //外部中断初始化
  91   1              inint0(); 
  92   1              time0_Init();  //定时器初始化
  93   1              oled_clear();  //清屏
  94   1      
  95   1      //      oled_chineseshow(4,8,2,1,4);     //显示开机
  96   1      
  97   1              DHT11_delay_ms(1500);    //DHT11上电后要等待1S以越过不稳定状态在此期间不能发送任何指令
  98   1              while(1)
  99   1              {
 100   2              DHT11_receive();
 101   2      //              p=rec_dat;
 102   2      
 103   2                      
 104   2      /************************温湿度串口调试*************************/
 105   2      //              for(j=0;j<9;j++)
 106   2      //              {
 107   2      //                      SBUF = *p;
 108   2      //                      while(!TI)                   //如果发送完毕，硬件会置位TI
 109   2      //                      {
 110   2      //                              _nop_();        
 111   2      //                      }
 112   2      //                      p++;
 113   2      //                      if(*p == '\0') break;           //在每个字符串的最后，会有一个'\0'
 114   2      //                      TI = 0;                                   //TI清零
 115   2      //              }
 116   2      
 117   2                      if(flag==1)       //进入时间调节模式
C51 COMPILER V9.01   MAIN                                                                  03/08/2022 22:43:47 PAGE 3   

 118   2                      {
 119   3                              oled_shownum(0,0,1,0,17);  //显示2
 120   3                              oled_shownum(1,0,1,0,15);  //显示0
 121   3                              oled_chineseshow(2,0,1,1,0); //显示年
 122   3                              oled_chineseshow(4,0,1,1,1); //显示月
 123   3                              oled_chineseshow(6,0,1,1,2); //显示日
 124   3                              oled_chineseshow(6,1,1,1,3);  //显示周
 125   3                      
 126   3                              oled_shownum(2,2,1,0,25);         //显示时分之间的 :
 127   3                              oled_shownum(5,2,1,0,25);         //显示分秒之间的 :
 128   3                      
 129   3                              oled_shownum(11,6,1,0,51);        //温度 T
 130   3                              oled_shownum(11,7,1,0,39);        //湿度 H
 131   3                              oled_shownum(12,6,1,0,25);        //:
 132   3                              oled_shownum(12,7,1,0,25);        //:
 133   3                      
 134   3                              oled_shownum(15,6,1,0,4);        //%
 135   3                              oled_shownum(15,7,1,0,95);   //C
 136   3              
 137   3                              oled_shownum(13,6,1,0,rec_dat[0]-33);   //湿度十位
 138   3                              oled_shownum(14,6,1,0,rec_dat[1]-33);   //湿度个位
 139   3                              oled_shownum(13,7,1,0,rec_dat[6]-33);   //温度十位
 140   3                              oled_shownum(14,7,1,0,rec_dat[7]-33);   //温度个位
 141   3      
 142   3                              key1();
 143   3                              key2();
 144   3                              key3();
 145   3                              key4();
 146   3                              time_change();
 147   3                          display();
 148   3      
 149   3                              oled_shownumy(2,0,1,0, singletime[0]);//显示年十位
 150   3                              oled_shownumy(3,0,1,0, singletime[1]);//显示年个位
 151   3              
 152   3                              oled_shownumy(6,0,1,0, singletime[2]);//显示月十位
 153   3                              oled_shownumy(7,0,1,0, singletime[3]);//显示月个位
 154   3              
 155   3                              oled_shownumy(10,0,1,0, singletime[4]);//显示日十位
 156   3                              oled_shownumy(11,0,1,0, singletime[5]);//显示日个位
 157   3              
 158   3      //                      oled_chineseshow(4,2,1,1,10+singletime[12]);     //显示周几
 159   3                              oled_zhoushow(7,1,1,1,singletime[12]-1);         //显示周几
 160   3      
 161   3                              oled_shownumy(0,2,1,0, singletime[6]);//显示时十位
 162   3                              oled_shownumy(1,2,1,0, singletime[7]);//显示时个位
 163   3              
 164   3                              oled_shownumy(3,2,1,0, singletime[8]);//显示分十位
 165   3                              oled_shownumy(4,2,1,0, singletime[9]);//显示分个位
 166   3              
 167   3                              oled_shownumy(6,2,1,0, singletime[10]);//显示秒十位
 168   3                              oled_shownumy(7,2,1,0, singletime[11]);//显示秒个位                             
 169   3                      }
 170   2                      if(flag==0)      //正常显示
 171   2                      {
 172   3                              i=0;
 173   3                              j=0;
 174   3                              oled_shownum(0,0,1,0,17);  //显示2
 175   3                              oled_shownum(1,0,1,0,15);  //显示0
 176   3                              oled_chineseshow(2,0,1,1,0); //显示年
 177   3                              oled_chineseshow(4,0,1,1,1); //显示月
 178   3                              oled_chineseshow(6,0,1,1,2); //显示日
 179   3                              oled_chineseshow(6,1,1,1,3);  //显示周
C51 COMPILER V9.01   MAIN                                                                  03/08/2022 22:43:47 PAGE 4   

 180   3                      
 181   3                              oled_shownum(2,2,1,0,25);         //显示时分之间的 :
 182   3                              oled_shownum(5,2,1,0,25);         //显示分秒之间的 :
 183   3                      
 184   3                              oled_shownum(11,6,1,0,51);        //温度 T
 185   3                              oled_shownum(11,7,1,0,39);        //湿度 H
 186   3                              oled_shownum(12,6,1,0,25);        //:
 187   3                              oled_shownum(12,7,1,0,25);        //:
 188   3                      
 189   3                              oled_shownum(15,6,1,0,4);        //%
 190   3                              oled_shownum(15,7,1,0,95);   //C
 191   3              
 192   3                              oled_shownum(13,6,1,0,rec_dat[0]-33);   //湿度十位
 193   3                              oled_shownum(14,6,1,0,rec_dat[1]-33);   //湿度个位
 194   3                              oled_shownum(13,7,1,0,rec_dat[6]-33);   //温度十位
 195   3                              oled_shownum(14,7,1,0,rec_dat[7]-33);   //温度个位
 196   3      
 197   3                              Ds1302ReadTime();
 198   3                              time_change();
 199   3                          display();
 200   3                              oled_shownum(2,0,1,0, singletime[0]+15);//显示年十位
 201   3                              oled_shownum(3,0,1,0, singletime[1]+15);//显示年个位
 202   3              
 203   3                              oled_shownum(6,0,1,0, singletime[2]+15);//显示月十位
 204   3                              oled_shownum(7,0,1,0, singletime[3]+15);//显示月个位
 205   3              
 206   3                              oled_shownum(10,0,1,0, singletime[4]+15);//显示日十位
 207   3                              oled_shownum(11,0,1,0, singletime[5]+15);//显示日个位
 208   3              
 209   3      //                      oled_chineseshow(4,2,1,1,10+singletime[12]+15);  //显示周几
 210   3                              oled_zhoushow(7,1,1,1,singletime[12]-1);         //显示周几
 211   3      
 212   3                              oled_shownum(0,2,1,0, singletime[6]+15);//显示时十位
 213   3                              oled_shownum(1,2,1,0, singletime[7]+15);//显示时个位
 214   3              
 215   3                              oled_shownum(3,2,1,0, singletime[8]+15);//显示分十位
 216   3                              oled_shownum(4,2,1,0, singletime[9]+15);//显示分个位
 217   3              
 218   3                              oled_shownum(6,2,1,0, singletime[10]+15);//显示秒十位
 219   3                              oled_shownum(7,2,1,0, singletime[11]+15);//显示秒个位
 220   3              
 221   3                              AlarmClock(hour,minute,second);   // 闹钟
 222   3                      }
 223   2                      if(flag==2)              //闹钟调节模式
 224   2                      {
 225   3                              if(i==0) oled_clear();  //清屏
 226   3                              i++;
 227   3      
 228   3                              oled_shownum(2,2,1,0,25);         //显示时分之间的 :
 229   3                              oled_shownum(5,2,1,0,25);         //显示分秒之间的 :
 230   3                              Alarm_key3();   //闹钟时间块加1
 231   3                              Alarm_key4();   //闹钟时间块减1
 232   3                              Alarm_key1();   //闹钟时间加1
 233   3                              Alarm_key2();   //闹钟时间减1
 234   3      
 235   3                              oled_shownum(0,2,1,0,(hour/10)+15);//显示时十位
 236   3                              oled_shownum(1,2,1,0,(hour%10)+15);//显示时个位
 237   3              
 238   3                              oled_shownum(3,2,1,0,(minute/10)+15);//显示分十位
 239   3                              oled_shownum(4,2,1,0,(minute%10)+15);//显示分个位
 240   3      
 241   3                              oled_shownum(6,2,1,0,(second/10)+15);//显示秒十位
C51 COMPILER V9.01   MAIN                                                                  03/08/2022 22:43:47 PAGE 5   

 242   3                              oled_shownum(7,2,1,0,(second%10)+15);//显示秒个位       
 243   3                      }
 244   2                      
 245   2                      if(flag==3)  //秒表模式
 246   2                      {
 247   3                              if(j==0) 
 248   3                              {
 249   4                                      oled_clear();  //清屏
 250   4      //                              oled_shownum(5,2,1,0,25);         //显示秒与毫秒之间的 :
 251   4                              }
 252   3                              j++;
 253   3      
 254   3                              time_on();        //开启定时器
 255   3                              time_off();       //关闭定时器,暂停
 256   3                              time_res();  //复位定时器
 257   3      
 258   3                              if(pp>=1)       //10ms时间到     1*10ms=10ms，中断程序中pp++
 259   3                              {       
 260   4                                      pp=0;    //pp清0，等待下一次循环计数
 261   4                                      m++;    //m是秒计时
 262   4                              if(m>10)          //计数10后，满1秒钟，m清0
 263   4                                      {
 264   5                                              m=0;
 265   5                                              n++;   
 266   5                                              if(n>99)   //100秒
 267   5                                              {
 268   6                                                      n=0;
 269   6                                              }          
 270   5                                      }
 271   4                              }                               
 272   3      
 273   3                      
 274   3      
 275   3                              oled_shownum(3,2,1,0,(n/10)+15);//显示秒十位
 276   3                              oled_shownum(4,2,1,0,(n%10)+15);//显示秒个位
 277   3      //                      oled_shownum(6,2,1,0,(m/10)+15);//显示毫秒十位
 278   3      //                      oled_shownum(7,2,1,0,(m%10)+15);//显示毫秒个位  
 279   3                      }                               
 280   2               }       
 281   1      }


MODULE INFORMATION:   STATIC OVERLAYABLE
   CODE SIZE        =   1623    ----
   CONSTANT SIZE    =   ----    ----
   XDATA SIZE       =   ----    ----
   PDATA SIZE       =   ----    ----
   DATA SIZE        =     32    ----
   IDATA SIZE       =   ----    ----
   BIT SIZE         =   ----    ----
END OF MODULE INFORMATION.


C51 COMPILATION COMPLETE.  0 WARNING(S),  0 ERROR(S)
